{
  "transactions": [
    {
      "hash": "0x084f486e8c5f08ca1fa04abca4c423d4e6e3f29be51fa60df419455c47eab8e4",
      "transactionType": "CALL",
      "contractName": null,
      "contractAddress": "0x34bb0b9e939531173122900b4702448acfe5922a",
      "function": "flipMood(uint256)",
      "arguments": [
        "0"
      ],
      "transaction": {
        "from": "0x04a31e08d16451b9f0090c13fb64288193e58ceb",
        "to": "0x34bb0b9e939531173122900b4702448acfe5922a",
        "gas": "0xf94c",
        "value": "0x0",
        "input": "0xc1a147a00000000000000000000000000000000000000000000000000000000000000000",
        "nonce": "0x5",
        "chainId": "0xaa36a7"
      },
      "additionalContracts": [],
      "isFixedGasLimit": false
    }
  ],
  "receipts": [
    {
      "status": "0x1",
      "cumulativeGasUsed": "0x3464ba",
      "logs": [],
      "logsBloom": "0x00000000000000000000000000000000000000000000000000000000000000000000000000000000000000000000000000000000000000000000000000000000000000000000000000000000000000000000000000000000000000000000000000000000000000000000000000000000000000000000000000000000000000000000000000000000000000000000000000000000000000000000000000000000000000000000000000000000000000000000000000000000000000000000000000000000000000000000000000000000000000000000000000000000000000000000000000000000000000000000000000000000000000000000000000000000",
      "type": "0x2",
      "transactionHash": "0x084f486e8c5f08ca1fa04abca4c423d4e6e3f29be51fa60df419455c47eab8e4",
      "transactionIndex": "0x2f",
      "blockHash": "0x3d11423fab890674f65717ec082adf67e65643fa9254a2f06545d4df83b85b2e",
      "blockNumber": "0x640ed7",
      "gasUsed": "0xb47e",
      "effectiveGasPrice": "0x416067b4",
      "from": "0x04a31e08d16451b9f0090c13fb64288193e58ceb",
      "to": "0x34bb0b9e939531173122900b4702448acfe5922a",
      "contractAddress": null
    }
  ],
  "libraries": [],
  "pending": [],
  "returns": {},
  "timestamp": 1724436919,
  "chain": 11155111,
  "commit": "018172c"
}