{
  "transactions": [
    {
      "hash": "0x2e91c7be0ea9f099c59a6d10130e81de3d7ac221ec343fa6a935b844c2f36447",
      "transactionType": "CALL",
      "contractName": null,
      "contractAddress": "0x2bd454da8428f50d1f548f433f742f936ae7efc8",
      "function": "flipMood(uint256)",
      "arguments": [
        "0"
      ],
      "transaction": {
        "from": "0xe01b55a609b817a416c2b3b9a88f68b4973a86a6",
        "to": "0x2bd454da8428f50d1f548f433f742f936ae7efc8",
        "gas": "0xf94c",
        "value": "0x0",
        "input": "0xc1a147a00000000000000000000000000000000000000000000000000000000000000000",
        "nonce": "0x3a",
        "chainId": "0xaa36a7"
      },
      "additionalContracts": [],
      "isFixedGasLimit": false
    }
  ],
  "receipts": [
    {
      "status": "0x1",
      "cumulativeGasUsed": "0x179c41e",
      "logs": [],
      "logsBloom": "0x00000000000000000000000000000000000000000000000000000000000000000000000000000000000000000000000000000000000000000000000000000000000000000000000000000000000000000000000000000000000000000000000000000000000000000000000000000000000000000000000000000000000000000000000000000000000000000000000000000000000000000000000000000000000000000000000000000000000000000000000000000000000000000000000000000000000000000000000000000000000000000000000000000000000000000000000000000000000000000000000000000000000000000000000000000000",
      "type": "0x2",
      "transactionHash": "0x2e91c7be0ea9f099c59a6d10130e81de3d7ac221ec343fa6a935b844c2f36447",
      "transactionIndex": "0x60",
      "blockHash": "0x3ef726d6cfc0aa2f9a2590c869056973f0f815d98d743fd0ca6a0404f011ef5e",
      "blockNumber": "0x635a73",
      "gasUsed": "0xb47e",
      "effectiveGasPrice": "0x2ffe68e98",
      "from": "0xe01b55a609b817a416c2b3b9a88f68b4973a86a6",
      "to": "0x2bd454da8428f50d1f548f433f742f936ae7efc8",
      "contractAddress": null
    }
  ],
  "libraries": [],
  "pending": [],
  "returns": {},
  "timestamp": 1723811356,
  "chain": 11155111,
  "commit": "c510909"
}