{
  "transactions": [
    {
      "hash": "0x70191c06832b7ffd5e0656ace1a7a212f13ba5842973793b7b567be23fcca1e4",
      "transactionType": "CALL",
      "contractName": null,
      "contractAddress": "0xdbcdf10e8afdde35aafc6980ccfb3329879cbbd8",
      "function": "flipMood(uint256)",
      "arguments": [
        "1"
      ],
      "transaction": {
        "from": "0xe01b55a609b817a416c2b3b9a88f68b4973a86a6",
        "to": "0xdbcdf10e8afdde35aafc6980ccfb3329879cbbd8",
        "gas": "0x10809",
        "value": "0x0",
        "input": "0xc1a147a00000000000000000000000000000000000000000000000000000000000000001",
        "nonce": "0x44",
        "chainId": "0xaa36a7"
      },
      "additionalContracts": [],
      "isFixedGasLimit": false
    }
  ],
  "receipts": [
    {
      "status": "0x1",
      "cumulativeGasUsed": "0x70bb1a",
      "logs": [],
      "logsBloom": "0x00000000000000000000000000000000000000000000000000000000000000000000000000000000000000000000000000000000000000000000000000000000000000000000000000000000000000000000000000000000000000000000000000000000000000000000000000000000000000000000000000000000000000000000000000000000000000000000000000000000000000000000000000000000000000000000000000000000000000000000000000000000000000000000000000000000000000000000000000000000000000000000000000000000000000000000000000000000000000000000000000000000000000000000000000000000",
      "type": "0x2",
      "transactionHash": "0x70191c06832b7ffd5e0656ace1a7a212f13ba5842973793b7b567be23fcca1e4",
      "transactionIndex": "0x2c",
      "blockHash": "0x0a911437727ffa0fe257e95b7682676c8a59b9431e79f1ac26ac4383f36e7f38",
      "blockNumber": "0x640e6c",
      "gasUsed": "0xb48a",
      "effectiveGasPrice": "0x6a3aeab7",
      "from": "0xe01b55a609b817a416c2b3b9a88f68b4973a86a6",
      "to": "0xdbcdf10e8afdde35aafc6980ccfb3329879cbbd8",
      "contractAddress": null
    }
  ],
  "libraries": [],
  "pending": [],
  "returns": {},
  "timestamp": 1724435369,
  "chain": 11155111,
  "commit": "018172c"
}