{
  "transactions": [
    {
      "hash": "0x929bd34290f146d229109dd81b04fedf6852d7afa2f947fc239ddec78a82138a",
      "transactionType": "CALL",
      "contractName": null,
      "contractAddress": "0x2bd454da8428f50d1f548f433f742f936ae7efc8",
      "function": "flipMood(uint256)",
      "arguments": [
        "0"
      ],
      "transaction": {
        "from": "0x04a31e08d16451b9f0090c13fb64288193e58ceb",
        "to": "0x2bd454da8428f50d1f548f433f742f936ae7efc8",
        "gas": "0xf94c",
        "value": "0x0",
        "input": "0xc1a147a00000000000000000000000000000000000000000000000000000000000000000",
        "nonce": "0x2",
        "chainId": "0xaa36a7"
      },
      "additionalContracts": [],
      "isFixedGasLimit": false
    }
  ],
  "receipts": [
    {
      "status": "0x1",
      "cumulativeGasUsed": "0xc3a325",
      "logs": [],
      "logsBloom": "0x00000000000000000000000000000000000000000000000000000000000000000000000000000000000000000000000000000000000000000000000000000000000000000000000000000000000000000000000000000000000000000000000000000000000000000000000000000000000000000000000000000000000000000000000000000000000000000000000000000000000000000000000000000000000000000000000000000000000000000000000000000000000000000000000000000000000000000000000000000000000000000000000000000000000000000000000000000000000000000000000000000000000000000000000000000000",
      "type": "0x2",
      "transactionHash": "0x929bd34290f146d229109dd81b04fedf6852d7afa2f947fc239ddec78a82138a",
      "transactionIndex": "0x4d",
      "blockHash": "0xd92d1588beeaa7d88afc008ae978d9b29348febef18a7eb216c5018c930f6dd1",
      "blockNumber": "0x635c04",
      "gasUsed": "0xb47e",
      "effectiveGasPrice": "0x1cfe5a35c",
      "from": "0x04a31e08d16451b9f0090c13fb64288193e58ceb",
      "to": "0x2bd454da8428f50d1f548f433f742f936ae7efc8",
      "contractAddress": null
    }
  ],
  "libraries": [],
  "pending": [],
  "returns": {},
  "timestamp": 1723816660,
  "chain": 11155111,
  "commit": "c510909"
}