{
  "transactions": [
    {
      "hash": "0x796a67beca5fb9b6436c41c30d82c038abf831798ab7735994746068e2055209",
      "transactionType": "CALL",
      "contractName": null,
      "contractAddress": "0x34bb0b9e939531173122900b4702448acfe5922a",
      "function": "flipMood(uint256)",
      "arguments": [
        "0"
      ],
      "transaction": {
        "from": "0xe01b55a609b817a416c2b3b9a88f68b4973a86a6",
        "to": "0x34bb0b9e939531173122900b4702448acfe5922a",
        "gas": "0x8321",
        "value": "0x0",
        "input": "0xc1a147a00000000000000000000000000000000000000000000000000000000000000000",
        "nonce": "0x4b",
        "chainId": "0xaa36a7"
      },
      "additionalContracts": [],
      "isFixedGasLimit": false
    }
  ],
  "receipts": [
    {
      "status": "0x1",
      "cumulativeGasUsed": "0x6a5b57",
      "logs": [],
      "logsBloom": "0x00000000000000000000000000000000000000000000000000000000000000000000000000000000000000000000000000000000000000000000000000000000000000000000000000000000000000000000000000000000000000000000000000000000000000000000000000000000000000000000000000000000000000000000000000000000000000000000000000000000000000000000000000000000000000000000000000000000000000000000000000000000000000000000000000000000000000000000000000000000000000000000000000000000000000000000000000000000000000000000000000000000000000000000000000000000",
      "type": "0x2",
      "transactionHash": "0x796a67beca5fb9b6436c41c30d82c038abf831798ab7735994746068e2055209",
      "transactionIndex": "0x2b",
      "blockHash": "0x8a63491e1f2a43cd357b8b98d377b8f8a7bebcd83768448a4f4abb34b179f0ec",
      "blockNumber": "0x640ecc",
      "gasUsed": "0x5ef0",
      "effectiveGasPrice": "0x57e22a09",
      "from": "0xe01b55a609b817a416c2b3b9a88f68b4973a86a6",
      "to": "0x34bb0b9e939531173122900b4702448acfe5922a",
      "contractAddress": null
    }
  ],
  "libraries": [],
  "pending": [],
  "returns": {},
  "timestamp": 1724436785,
  "chain": 11155111,
  "commit": "018172c"
}