{
  "transactions": [
    {
      "hash": "0xc20817e3e690a00fd422d8f7ca066bc9e41aa16f4d48066005e76270ea924862",
      "transactionType": "CALL",
      "contractName": null,
      "contractAddress": "0xdb15f0dff1dc2432b4cd7c8347bb22045adac458",
      "function": "mintNFT(string)",
      "arguments": [
        "\"ipfs://bafybeig37ioir76s7mg5oobetncojcm3c3hxasyd4rvid4jqhy4gkaheg4/?filename=0-PUG.json\""
      ],
      "transaction": {
        "from": "0xe01b55a609b817a416c2b3b9a88f68b4973a86a6",
        "to": "0xdb15f0dff1dc2432b4cd7c8347bb22045adac458",
        "gas": "0x3d643",
        "value": "0x0",
        "input": "0xfb37e88300000000000000000000000000000000000000000000000000000000000000200000000000000000000000000000000000000000000000000000000000000057697066733a2f2f62616679626569673337696f6972373673376d67356f6f6265746e636f6a636d3363336878617379643472766964346a71687934676b61686567342f3f66696c656e616d653d302d5055472e6a736f6e000000000000000000",
        "nonce": "0x37",
        "chainId": "0xaa36a7"
      },
      "additionalContracts": [],
      "isFixedGasLimit": false
    }
  ],
  "receipts": [
    {
      "status": "0x1",
      "cumulativeGasUsed": "0xac4b23",
      "logs": [
        {
          "address": "0xdb15f0dff1dc2432b4cd7c8347bb22045adac458",
          "topics": [
            "0xddf252ad1be2c89b69c2b068fc378daa952ba7f163c4a11628f55a4df523b3ef",
            "0x0000000000000000000000000000000000000000000000000000000000000000",
            "0x000000000000000000000000e01b55a609b817a416c2b3b9a88f68b4973a86a6",
            "0x0000000000000000000000000000000000000000000000000000000000000000"
          ],
          "data": "0x",
          "blockHash": "0x4a5ad43a0ff504d00209a438b2560b302a3a4131747516ad1e0f6093094ed977",
          "blockNumber": "0x62cc57",
          "transactionHash": "0xc20817e3e690a00fd422d8f7ca066bc9e41aa16f4d48066005e76270ea924862",
          "transactionIndex": "0x41",
          "logIndex": "0x7c",
          "removed": false
        }
      ],
      "logsBloom": "0x00000000000000000000000000000000000000000000000000000000000000000000000000000000000000800000000000000000000000000000000000000000000000000000000000000008000000000000000000000000000000000080000000000000020000000000000000000800000000000000000000000010000000100000000000000000000000000000000000000000000000000000000000000000000000000000000000000000000000000000000000000000000020000000001000000002000000000000000000000000000000000000000000000000800020000000000000000000000000000000000000000000000000000000000000000000",
      "type": "0x2",
      "transactionHash": "0xc20817e3e690a00fd422d8f7ca066bc9e41aa16f4d48066005e76270ea924862",
      "transactionIndex": "0x41",
      "blockHash": "0x4a5ad43a0ff504d00209a438b2560b302a3a4131747516ad1e0f6093094ed977",
      "blockNumber": "0x62cc57",
      "gasUsed": "0x2c724",
      "effectiveGasPrice": "0x7b909248",
      "from": "0xe01b55a609b817a416c2b3b9a88f68b4973a86a6",
      "to": "0xdb15f0dff1dc2432b4cd7c8347bb22045adac458",
      "contractAddress": null
    }
  ],
  "libraries": [],
  "pending": [],
  "returns": {},
  "timestamp": 1723315332,
  "chain": 11155111,
  "commit": "c510909"
}