{
  "transactions": [
    {
      "hash": "0xace8b0315a38867470e3116079c174587e0e9fca74d488b527198e0413dfaa4b",
      "transactionType": "CALL",
      "contractName": null,
      "contractAddress": "0x34bb0b9e939531173122900b4702448acfe5922a",
      "function": "flipMood(uint256)",
      "arguments": [
        "0"
      ],
      "transaction": {
        "from": "0xe01b55a609b817a416c2b3b9a88f68b4973a86a6",
        "to": "0x34bb0b9e939531173122900b4702448acfe5922a",
        "gas": "0xf94c",
        "value": "0x0",
        "input": "0xc1a147a00000000000000000000000000000000000000000000000000000000000000000",
        "nonce": "0x49",
        "chainId": "0xaa36a7"
      },
      "additionalContracts": [],
      "isFixedGasLimit": false
    }
  ],
  "receipts": [
    {
      "status": "0x1",
      "cumulativeGasUsed": "0x10d1c0f",
      "logs": [],
      "logsBloom": "0x00000000000000000000000000000000000000000000000000000000000000000000000000000000000000000000000000000000000000000000000000000000000000000000000000000000000000000000000000000000000000000000000000000000000000000000000000000000000000000000000000000000000000000000000000000000000000000000000000000000000000000000000000000000000000000000000000000000000000000000000000000000000000000000000000000000000000000000000000000000000000000000000000000000000000000000000000000000000000000000000000000000000000000000000000000000",
      "type": "0x2",
      "transactionHash": "0xace8b0315a38867470e3116079c174587e0e9fca74d488b527198e0413dfaa4b",
      "transactionIndex": "0x4f",
      "blockHash": "0x8779b4cb364281a54a51be02c8557369ed2628c87a0792b27b5550542e12666a",
      "blockNumber": "0x640eb9",
      "gasUsed": "0xb47e",
      "effectiveGasPrice": "0x5d50eecd",
      "from": "0xe01b55a609b817a416c2b3b9a88f68b4973a86a6",
      "to": "0x34bb0b9e939531173122900b4702448acfe5922a",
      "contractAddress": null
    }
  ],
  "libraries": [],
  "pending": [],
  "returns": {},
  "timestamp": 1724436532,
  "chain": 11155111,
  "commit": "018172c"
}