{
  "transactions": [
    {
      "hash": "0x17bd8add2c1af4a9e9742217f051827e1ec65e4cd357b2e4479c4a16bc04c771",
      "transactionType": "CALL",
      "contractName": null,
      "contractAddress": "0x779877A7B0D9E8603169DdbD7836e478b4624789",
      "function": "transferAndCall(address,uint256,bytes)",
      "arguments": [
        "0x8103B0A8A00be2DDC778e6e7eaa21791Cd364625",
        "5000000000000000000",
        "0x0000000000000000000000000000000000000000000000000000000000002af1"
      ],
      "transaction": {
        "type": "0x02",
        "from": "0xe01b55a609b817a416c2b3b9a88f68b4973a86a6",
        "to": "0x779877a7b0d9e8603169ddbd7836e478b4624789",
        "gas": "0x13fbe",
        "value": "0x0",
        "data": "0x4000aea00000000000000000000000008103b0a8a00be2ddc778e6e7eaa21791cd3646250000000000000000000000000000000000000000000000004563918244f40000000000000000000000000000000000000000000000000000000000000000006000000000000000000000000000000000000000000000000000000000000000200000000000000000000000000000000000000000000000000000000000002af1",
        "nonce": "0x31",
        "accessList": []
      },
      "additionalContracts": [],
      "isFixedGasLimit": false
    }
  ],
  "receipts": [
    {
      "transactionHash": "0x17bd8add2c1af4a9e9742217f051827e1ec65e4cd357b2e4479c4a16bc04c771",
      "transactionIndex": "0xe",
      "blockHash": "0x22f9389ce548c03e0a555676b0e154dd15ac54d98a714f25d5a461369d5d9da1",
      "blockNumber": "0x5959bb",
      "from": "0xE01B55a609B817A416c2b3b9a88F68b4973a86A6",
      "to": "0x779877A7B0D9E8603169DdbD7836e478b4624789",
      "cumulativeGasUsed": "0xb3dfb",
      "gasUsed": "0xe77e",
      "contractAddress": null,
      "logs": [
        {
          "address": "0x779877A7B0D9E8603169DdbD7836e478b4624789",
          "topics": [
            "0xddf252ad1be2c89b69c2b068fc378daa952ba7f163c4a11628f55a4df523b3ef",
            "0x000000000000000000000000e01b55a609b817a416c2b3b9a88f68b4973a86a6",
            "0x0000000000000000000000008103b0a8a00be2ddc778e6e7eaa21791cd364625"
          ],
          "data": "0x0000000000000000000000000000000000000000000000004563918244f40000",
          "blockHash": "0x22f9389ce548c03e0a555676b0e154dd15ac54d98a714f25d5a461369d5d9da1",
          "blockNumber": "0x5959bb",
          "transactionHash": "0x17bd8add2c1af4a9e9742217f051827e1ec65e4cd357b2e4479c4a16bc04c771",
          "transactionIndex": "0xe",
          "logIndex": "0xb",
          "removed": false
        },
        {
          "address": "0x779877A7B0D9E8603169DdbD7836e478b4624789",
          "topics": [
            "0xe19260aff97b920c7df27010903aeb9c8d2be5d310a2c67824cf3f15396e4c16",
            "0x000000000000000000000000e01b55a609b817a416c2b3b9a88f68b4973a86a6",
            "0x0000000000000000000000008103b0a8a00be2ddc778e6e7eaa21791cd364625"
          ],
          "data": "0x0000000000000000000000000000000000000000000000004563918244f40000000000000000000000000000000000000000000000000000000000000000004000000000000000000000000000000000000000000000000000000000000000200000000000000000000000000000000000000000000000000000000000002af1",
          "blockHash": "0x22f9389ce548c03e0a555676b0e154dd15ac54d98a714f25d5a461369d5d9da1",
          "blockNumber": "0x5959bb",
          "transactionHash": "0x17bd8add2c1af4a9e9742217f051827e1ec65e4cd357b2e4479c4a16bc04c771",
          "transactionIndex": "0xe",
          "logIndex": "0xc",
          "removed": false
        },
        {
          "address": "0x8103B0A8A00be2DDC778e6e7eaa21791Cd364625",
          "topics": [
            "0xd39ec07f4e209f627a4c427971473820dc129761ba28de8906bd56f57101d4f8",
            "0x0000000000000000000000000000000000000000000000000000000000002af1"
          ],
          "data": "0x000000000000000000000000000000000000000000000000cbf7df53de663cb2000000000000000000000000000000000000000000000001115b70d6235a3cb2",
          "blockHash": "0x22f9389ce548c03e0a555676b0e154dd15ac54d98a714f25d5a461369d5d9da1",
          "blockNumber": "0x5959bb",
          "transactionHash": "0x17bd8add2c1af4a9e9742217f051827e1ec65e4cd357b2e4479c4a16bc04c771",
          "transactionIndex": "0xe",
          "logIndex": "0xd",
          "removed": false
        }
      ],
      "status": "0x1",
      "logsBloom": "0x0000001400000000000000000000000000000000020000020000000002000000000000000000800000000000000000000000000000000000000000000000000000000000000000000000000800000000000000000000000000002000008000000000000000000000000000000000000000000000400000000000001000000000000000000e000020000000000000800010000020000000000000000000000000000000000000000000000000000000000000000000000000000400000000001000000002000000000000000000000000000000000000000100000400800000000000000000000000000000000000000000000000000000000000000000000000",
      "type": "0x2",
      "effectiveGasPrice": "0x2641287a02"
    }
  ],
  "libraries": [],
  "pending": [],
  "returns": {},
  "timestamp": 1715093815,
  "chain": 11155111,
  "commit": "2dd2f40"
}