{
  "transactions": [
    {
      "hash": "0x72e15fe8df42ccd52cbc85a5de60fb20f755937d0ad6dfc4cb841dcc5e978c94",
      "transactionType": "CALL",
      "contractName": null,
      "contractAddress": "0x779877a7b0d9e8603169ddbd7836e478b4624789",
      "function": "transferAndCall(address,uint256,bytes)",
      "arguments": [
        "0x8103B0A8A00be2DDC778e6e7eaa21791Cd364625",
        "3000000000000000000",
        "0x0000000000000000000000000000000000000000000000000000000000002af1"
      ],
      "transaction": {
        "from": "0xe01b55a609b817a416c2b3b9a88f68b4973a86a6",
        "to": "0x779877a7b0d9e8603169ddbd7836e478b4624789",
        "gas": "0x13fbe",
        "value": "0x0",
        "input": "0x4000aea00000000000000000000000008103b0a8a00be2ddc778e6e7eaa21791cd36462500000000000000000000000000000000000000000000000029a2241af62c0000000000000000000000000000000000000000000000000000000000000000006000000000000000000000000000000000000000000000000000000000000000200000000000000000000000000000000000000000000000000000000000002af1",
        "nonce": "0x34",
        "chainId": "0xaa36a7"
      },
      "additionalContracts": [],
      "isFixedGasLimit": false
    }
  ],
  "receipts": [
    {
      "status": "0x1",
      "cumulativeGasUsed": "0x1a41ad2",
      "logs": [
        {
          "address": "0x779877a7b0d9e8603169ddbd7836e478b4624789",
          "topics": [
            "0xddf252ad1be2c89b69c2b068fc378daa952ba7f163c4a11628f55a4df523b3ef",
            "0x000000000000000000000000e01b55a609b817a416c2b3b9a88f68b4973a86a6",
            "0x0000000000000000000000008103b0a8a00be2ddc778e6e7eaa21791cd364625"
          ],
          "data": "0x00000000000000000000000000000000000000000000000029a2241af62c0000",
          "blockHash": "0x6639eca82e7c6c5c33b8ac62d84dc2cbfd902fad835f5522ab6017761d4a2e06",
          "blockNumber": "0x622f47",
          "transactionHash": "0x72e15fe8df42ccd52cbc85a5de60fb20f755937d0ad6dfc4cb841dcc5e978c94",
          "transactionIndex": "0x8b",
          "logIndex": "0x25e",
          "removed": false
        },
        {
          "address": "0x779877a7b0d9e8603169ddbd7836e478b4624789",
          "topics": [
            "0xe19260aff97b920c7df27010903aeb9c8d2be5d310a2c67824cf3f15396e4c16",
            "0x000000000000000000000000e01b55a609b817a416c2b3b9a88f68b4973a86a6",
            "0x0000000000000000000000008103b0a8a00be2ddc778e6e7eaa21791cd364625"
          ],
          "data": "0x00000000000000000000000000000000000000000000000029a2241af62c0000000000000000000000000000000000000000000000000000000000000000004000000000000000000000000000000000000000000000000000000000000000200000000000000000000000000000000000000000000000000000000000002af1",
          "blockHash": "0x6639eca82e7c6c5c33b8ac62d84dc2cbfd902fad835f5522ab6017761d4a2e06",
          "blockNumber": "0x622f47",
          "transactionHash": "0x72e15fe8df42ccd52cbc85a5de60fb20f755937d0ad6dfc4cb841dcc5e978c94",
          "transactionIndex": "0x8b",
          "logIndex": "0x25f",
          "removed": false
        },
        {
          "address": "0x8103b0a8a00be2ddc778e6e7eaa21791cd364625",
          "topics": [
            "0xd39ec07f4e209f627a4c427971473820dc129761ba28de8906bd56f57101d4f8",
            "0x0000000000000000000000000000000000000000000000000000000000002af1"
          ],
          "data": "0x000000000000000000000000000000000000000000000001115b70d6235a3cb20000000000000000000000000000000000000000000000013afd94f119863cb2",
          "blockHash": "0x6639eca82e7c6c5c33b8ac62d84dc2cbfd902fad835f5522ab6017761d4a2e06",
          "blockNumber": "0x622f47",
          "transactionHash": "0x72e15fe8df42ccd52cbc85a5de60fb20f755937d0ad6dfc4cb841dcc5e978c94",
          "transactionIndex": "0x8b",
          "logIndex": "0x260",
          "removed": false
        }
      ],
      "logsBloom": "0x0000001400000000000000000000000000000000020000020000000002000000000000000000800000000000000000000000000000000000000000000000000000000000000000000000000800000000000000000000000000002000008000000000000000000000000000000000000000000000400000000000001000000000000000000e000020000000000000800010000020000000000000000000000000000000000000000000000000000000000000000000000000000400000000001000000002000000000000000000000000000000000000000100000400800000000000000000000000000000000000000000000000000000000000000000000000",
      "type": "0x2",
      "transactionHash": "0x72e15fe8df42ccd52cbc85a5de60fb20f755937d0ad6dfc4cb841dcc5e978c94",
      "transactionIndex": "0x8b",
      "blockHash": "0x6639eca82e7c6c5c33b8ac62d84dc2cbfd902fad835f5522ab6017761d4a2e06",
      "blockNumber": "0x622f47",
      "gasUsed": "0xe77e",
      "effectiveGasPrice": "0x10127a43c",
      "from": "0xe01b55a609b817a416c2b3b9a88f68b4973a86a6",
      "to": "0x779877a7b0d9e8603169ddbd7836e478b4624789",
      "contractAddress": null
    }
  ],
  "libraries": [],
  "pending": [],
  "returns": {},
  "timestamp": 1722764473,
  "chain": 11155111,
  "commit": "8c02bbe"
}